{
  "address": "0x224e22F862C8AdD613f23f9D11f3719f92f066Cc",
  "abi": [
    {
      "anonymous": false,
      "inputs": [
        {
          "indexed": true,
          "internalType": "address",
          "name": "owner",
          "type": "address"
        },
        {
          "indexed": false,
          "internalType": "uint256",
          "name": "timestamp",
          "type": "uint256"
        }
      ],
      "name": "ProfileDeleted",
      "type": "event"
    },
    {
      "anonymous": false,
      "inputs": [
        {
          "indexed": true,
          "internalType": "address",
          "name": "owner",
          "type": "address"
        },
        {
          "indexed": false,
          "internalType": "string",
          "name": "name",
          "type": "string"
        },
        {
          "indexed": false,
          "internalType": "uint256",
          "name": "timestamp",
          "type": "uint256"
        }
      ],
      "name": "ProfileUpdated",
      "type": "event"
    },
    {
      "inputs": [],
      "name": "deleteProfile",
      "outputs": [],
      "stateMutability": "nonpayable",
      "type": "function"
    },
    {
      "inputs": [],
      "name": "getAllRegisteredAddresses",
      "outputs": [
        {
          "internalType": "address[]",
          "name": "",
          "type": "address[]"
        }
      ],
      "stateMutability": "view",
      "type": "function"
    },
    {
      "inputs": [
        {
          "internalType": "address",
          "name": "owner",
          "type": "address"
        }
      ],
      "name": "getProfile",
      "outputs": [
        {
          "internalType": "string",
          "name": "name",
          "type": "string"
        },
        {
          "internalType": "string",
          "name": "description",
          "type": "string"
        },
        {
          "internalType": "string",
          "name": "website",
          "type": "string"
        },
        {
          "internalType": "string",
          "name": "industry",
          "type": "string"
        },
        {
          "internalType": "string",
          "name": "stage",
          "type": "string"
        },
        {
          "internalType": "string",
          "name": "complianceRegion",
          "type": "string"
        },
        {
          "internalType": "uint256",
          "name": "lastUpdated",
          "type": "uint256"
        }
      ],
      "stateMutability": "view",
      "type": "function"
    },
    {
      "inputs": [],
      "name": "getProfileCount",
      "outputs": [
        {
          "internalType": "uint256",
          "name": "",
          "type": "uint256"
        }
      ],
      "stateMutability": "view",
      "type": "function"
    },
    {
      "inputs": [
        {
          "internalType": "string",
          "name": "name",
          "type": "string"
        },
        {
          "internalType": "string",
          "name": "description",
          "type": "string"
        },
        {
          "internalType": "string",
          "name": "website",
          "type": "string"
        },
        {
          "internalType": "string",
          "name": "industry",
          "type": "string"
        },
        {
          "internalType": "string",
          "name": "stage",
          "type": "string"
        },
        {
          "internalType": "string",
          "name": "complianceRegion",
          "type": "string"
        }
      ],
      "name": "updateProfile",
      "outputs": [],
      "stateMutability": "nonpayable",
      "type": "function"
    }
  ],
  "transactionHash": "0x678c77de4c534ab19c97f4ff3dec51e5f27b59361555ad9502c12393b1adedd3",
  "args": [],
  "numDeployments": 1,
  "solcInputHash": "3e64ddfb9e2f642fb0b1625d21f325c3",
  "bytecode": "0x608060405234801561001057600080fd5b50610dbe806100206000396000f3fe608060405234801561001057600080fd5b50600436106100575760003560e01c80630f53a4701461005c5780633697611a1461008b57806361babc6e1461009c5780636d4540eb146100b1578063d479dbfa146100b9575b600080fd5b61006f61006a3660046108c4565b6100ce565b604051610082979695949392919061093a565b60405180910390f35b600154604051908152602001610082565b6100af6100aa366004610a67565b61047f565b005b6100af6105fe565b6100c161080c565b6040516100829190610b5c565b6060806060806060806000806000808a6001600160a01b03166001600160a01b031681526020019081526020016000209050806000018160010182600201836003018460040185600501866006015486805461012990610ba9565b80601f016020809104026020016040519081016040528092919081815260200182805461015590610ba9565b80156101a25780601f10610177576101008083540402835291602001916101a2565b820191906000526020600020905b81548152906001019060200180831161018557829003601f168201915b505050505096508580546101b590610ba9565b80601f01602080910402602001604051908101604052809291908181526020018280546101e190610ba9565b801561022e5780601f106102035761010080835404028352916020019161022e565b820191906000526020600020905b81548152906001019060200180831161021157829003601f168201915b5050505050955084805461024190610ba9565b80601f016020809104026020016040519081016040528092919081815260200182805461026d90610ba9565b80156102ba5780601f1061028f576101008083540402835291602001916102ba565b820191906000526020600020905b81548152906001019060200180831161029d57829003601f168201915b505050505094508380546102cd90610ba9565b80601f01602080910402602001604051908101604052809291908181526020018280546102f990610ba9565b80156103465780601f1061031b57610100808354040283529160200191610346565b820191906000526020600020905b81548152906001019060200180831161032957829003601f168201915b5050505050935082805461035990610ba9565b80601f016020809104026020016040519081016040528092919081815260200182805461038590610ba9565b80156103d25780601f106103a7576101008083540402835291602001916103d2565b820191906000526020600020905b8154815290600101906020018083116103b557829003601f168201915b505050505092508180546103e590610ba9565b80601f016020809104026020016040519081016040528092919081815260200182805461041190610ba9565b801561045e5780601f106104335761010080835404028352916020019161045e565b820191906000526020600020905b81548152906001019060200180831161044157829003601f168201915b50505050509150975097509750975097509750975050919395979092949650565b336000908152602081905260408120805461049990610ba9565b6040805160e0810182528a815260208082018b90528183018a9052606082018990526080820188905260a082018790524260c083015233600090815290819052919091208151921594509092509081906104f39082610c32565b50602082015160018201906105089082610c32565b506040820151600282019061051d9082610c32565b50606082015160038201906105329082610c32565b50608082015160048201906105479082610c32565b5060a0820151600582019061055c9082610c32565b5060c0820151816006015590505080156105b2576001805480820182556000919091527fb10e2d527612073b26eecdfd717e6a320cf44b4afac2b0732d9fcbe2b7fa0cf60180546001600160a01b031916331790555b336001600160a01b03167fdcb94c0b2c025b0736b4b62b1c595f2ca7ad4c711eada6026d477e87de9cca0888426040516105ed929190610cf2565b60405180910390a250505050505050565b336000908152602081905260408120805461061890610ba9565b9050116106635760405162461bcd60e51b8152602060048201526015602482015274141c9bd99a5b1948191bd95cdb89dd08195e1a5cdd605a1b604482015260640160405180910390fd5b3360009081526020819052604081209061067d828261086e565b61068b60018301600061086e565b61069960028301600061086e565b6106a760038301600061086e565b6106b560048301600061086e565b6106c360058301600061086e565b6006820160009055505060005b6001548110156107d457336001600160a01b0316600182815481106106f7576106f7610d14565b6000918252602090912001546001600160a01b0316036107c25760018054610720908290610d40565b8154811061073057610730610d14565b600091825260209091200154600180546001600160a01b03909216918390811061075c5761075c610d14565b9060005260206000200160006101000a8154816001600160a01b0302191690836001600160a01b03160217905550600180548061079b5761079b610d59565b600082815260209020810160001990810180546001600160a01b03191690550190556107d4565b806107cc81610d6f565b9150506106d0565b5060405142815233907f236eb7515b00733d8ade7456155d53d63c2fa66bec6437ddff6ab3fc71e1e3249060200160405180910390a2565b6060600180548060200260200160405190810160405280929190818152602001828054801561086457602002820191906000526020600020905b81546001600160a01b03168152600190910190602001808311610846575b5050505050905090565b50805461087a90610ba9565b6000825580601f1061088a575050565b601f0160209004906000526020600020908101906108a891906108ab565b50565b5b808211156108c057600081556001016108ac565b5090565b6000602082840312156108d657600080fd5b81356001600160a01b03811681146108ed57600080fd5b9392505050565b6000815180845260005b8181101561091a576020818501810151868301820152016108fe565b506000602082860101526020601f19601f83011685010191505092915050565b60e08152600061094d60e083018a6108f4565b828103602084015261095f818a6108f4565b9050828103604084015261097381896108f4565b9050828103606084015261098781886108f4565b9050828103608084015261099b81876108f4565b905082810360a08401526109af81866108f4565b9150508260c083015298975050505050505050565b634e487b7160e01b600052604160045260246000fd5b600082601f8301126109eb57600080fd5b813567ffffffffffffffff80821115610a0657610a066109c4565b604051601f8301601f19908116603f01168101908282118183101715610a2e57610a2e6109c4565b81604052838152866020858801011115610a4757600080fd5b836020870160208301376000602085830101528094505050505092915050565b60008060008060008060c08789031215610a8057600080fd5b863567ffffffffffffffff80821115610a9857600080fd5b610aa48a838b016109da565b97506020890135915080821115610aba57600080fd5b610ac68a838b016109da565b96506040890135915080821115610adc57600080fd5b610ae88a838b016109da565b95506060890135915080821115610afe57600080fd5b610b0a8a838b016109da565b94506080890135915080821115610b2057600080fd5b610b2c8a838b016109da565b935060a0890135915080821115610b4257600080fd5b50610b4f89828a016109da565b9150509295509295509295565b6020808252825182820181905260009190848201906040850190845b81811015610b9d5783516001600160a01b031683529284019291840191600101610b78565b50909695505050505050565b600181811c90821680610bbd57607f821691505b602082108103610bdd57634e487b7160e01b600052602260045260246000fd5b50919050565b601f821115610c2d57600081815260208120601f850160051c81016020861015610c0a5750805b601f850160051c820191505b81811015610c2957828155600101610c16565b5050505b505050565b815167ffffffffffffffff811115610c4c57610c4c6109c4565b610c6081610c5a8454610ba9565b84610be3565b602080601f831160018114610c955760008415610c7d5750858301515b600019600386901b1c1916600185901b178555610c29565b600085815260208120601f198616915b82811015610cc457888601518255948401946001909101908401610ca5565b5085821015610ce25787850151600019600388901b60f8161c191681555b5050505050600190811b01905550565b604081526000610d0560408301856108f4565b90508260208301529392505050565b634e487b7160e01b600052603260045260246000fd5b634e487b7160e01b600052601160045260246000fd5b81810381811115610d5357610d53610d2a565b92915050565b634e487b7160e01b600052603160045260246000fd5b600060018201610d8157610d81610d2a565b506001019056fea2646970667358221220e5c1d49f06085f0e0d4d798a5b4b3d6d1f747f5957cfccbd8d36b32df3c69e3c64736f6c63430008110033",
  "devdoc": {
    "details": "Stores startup profile information on-chain",
    "kind": "dev",
    "methods": {
      "deleteProfile()": {
        "details": "Deletes the startup profile for the sender"
      },
      "getAllRegisteredAddresses()": {
        "details": "Returns all registered addresses"
      },
      "getProfile(address)": {
        "details": "Retrieves the startup profile for a given address"
      },
      "getProfileCount()": {
        "details": "Returns the number of registered profiles"
      },
      "updateProfile(string,string,string,string,string,string)": {
        "details": "Updates the startup profile for the sender"
      }
    },
    "title": "StartupProfileRegistry",
    "version": 1
  },
  "userdoc": {
    "kind": "user",
    "methods": {},
    "version": 1
  },
  "storageLayout": {
    "storage": [
      {
        "astId": 1070,
        "contract": "contracts/StartupProfileRegistry.sol:StartupProfileRegistry",
        "label": "profiles",
        "offset": 0,
        "slot": "0",
        "type": "t_mapping(t_address,t_struct(StartupProfile)1065_storage)"
      },
      {
        "astId": 1073,
        "contract": "contracts/StartupProfileRegistry.sol:StartupProfileRegistry",
        "label": "registeredAddresses",
        "offset": 0,
        "slot": "1",
        "type": "t_array(t_address)dyn_storage"
      }
    ],
    "types": {
      "t_address": {
        "encoding": "inplace",
        "label": "address",
        "numberOfBytes": "20"
      },
      "t_array(t_address)dyn_storage": {
        "base": "t_address",
        "encoding": "dynamic_array",
        "label": "address[]",
        "numberOfBytes": "32"
      },
      "t_mapping(t_address,t_struct(StartupProfile)1065_storage)": {
        "encoding": "mapping",
        "key": "t_address",
        "label": "mapping(address => struct StartupProfileRegistry.StartupProfile)",
        "numberOfBytes": "32",
        "value": "t_struct(StartupProfile)1065_storage"
      },
      "t_string_storage": {
        "encoding": "bytes",
        "label": "string",
        "numberOfBytes": "32"
      },
      "t_struct(StartupProfile)1065_storage": {
        "encoding": "inplace",
        "label": "struct StartupProfileRegistry.StartupProfile",
        "members": [
          {
            "astId": 1052,
            "contract": "contracts/StartupProfileRegistry.sol:StartupProfileRegistry",
            "label": "name",
            "offset": 0,
            "slot": "0",
            "type": "t_string_storage"
          },
          {
            "astId": 1054,
            "contract": "contracts/StartupProfileRegistry.sol:StartupProfileRegistry",
            "label": "description",
            "offset": 0,
            "slot": "1",
            "type": "t_string_storage"
          },
          {
            "astId": 1056,
            "contract": "contracts/StartupProfileRegistry.sol:StartupProfileRegistry",
            "label": "website",
            "offset": 0,
            "slot": "2",
            "type": "t_string_storage"
          },
          {
            "astId": 1058,
            "contract": "contracts/StartupProfileRegistry.sol:StartupProfileRegistry",
            "label": "industry",
            "offset": 0,
            "slot": "3",
            "type": "t_string_storage"
          },
          {
            "astId": 1060,
            "contract": "contracts/StartupProfileRegistry.sol:StartupProfileRegistry",
            "label": "stage",
            "offset": 0,
            "slot": "4",
            "type": "t_string_storage"
          },
          {
            "astId": 1062,
            "contract": "contracts/StartupProfileRegistry.sol:StartupProfileRegistry",
            "label": "complianceRegion",
            "offset": 0,
            "slot": "5",
            "type": "t_string_storage"
          },
          {
            "astId": 1064,
            "contract": "contracts/StartupProfileRegistry.sol:StartupProfileRegistry",
            "label": "lastUpdated",
            "offset": 0,
            "slot": "6",
            "type": "t_uint256"
          }
        ],
        "numberOfBytes": "224"
      },
      "t_uint256": {
        "encoding": "inplace",
        "label": "uint256",
        "numberOfBytes": "32"
      }
    }
  }
}